:100000005821002065030000630300006303000023
:1000100000000000000000000000000000000000E0
:10002000000000000000000000000000630300006A
:1000300000000000000000006303000063030000F4
:10004000630300006303000063030000E12100007C
:100050000D1C00005D20000063030000630300002E
:1000600063030000630300006303000063030000F8
:1000700063030000630300006303000063030000E8
:100080006303000063030000012800006303000015
:100090006303000000000000000000006303000094
:1000A00063030000630300006303000063030000B8
:1000B0000000000010B5064C2378002B07D1054B3B
:1000C000002B02D0044800E000BF0123237010BDC4
:1000D0001C0000200000000034310000084B10B567
:1000E000002B03D00749084800E000BF0748036819
:1000F000002B00D110BD064B002BFBD09847F9E731
:1001000000000000200000203431000034310000E5
:100110000000000010B5014B984710BDBD0800005D
:1001200010B50122024B1A700248034B984710BDCC
:1001300038000020040100208917000010B50122BA
:10014000024B5A700248034B984710BD38000020FC
:10015000040100208917000010B50122024B9A709B
:100160000248034B984710BD3800002004010020CE
:100170008917000010B506490A23CB60054B0B61B7
:1001800001230B7504310448044B984710BDC04649
:100190003800002095020000040100200118000032
:1001A00010B506200B4CA0470520A0470920A0470A
:1001B00009490520094CA04709490620A0470949DB
:1001C0000920A0470620084CA0470520A047092089
:1001D000A04710BDB510000059010000BD0F000080
:1001E0003D01000021010000A510000000281ED1E3
:1001F000C023DB05802212045A61802212015A6159
:10020000802252035A61802292025A6103281ED131
:10021000C023DB05802212049A61802212019A61B8
:10022000802252039A61802292025A611FE00128C3
:100230001ED1C023DB05802212049A6180221201A4
:100240005A61802252035A61802292025A61042824
:100250000DD1C023DB05802212049A618022120195
:100260009A61802252039A61802292029A617047B9
:100270000228CBD1C023DB05802212049A618022A0
:1002800012019A61802252035A61802292025A61BD
:10029000EDE7000010B5214B5B78002B08D11F4B18
:1002A0009B78002B1AD11D4B1B78002B2CD110BD35
:1002B0001B4C2378013323700022184B5A701948C5
:1002C000194B9847194B198801221948194B98471F
:1002D000194B98472078194B9847E8E7104C23783A
:1002E000013B237000220D4B9A700E480E4B98472D
:1002F0000E4B198801220E480E4B98470E4B98471B
:1003000020780E4B9847D2E7054A937801339370D3
:100310000022024B1A700A4B9847C8E738000020A9
:100320007C00002004010020C517000014000020FC
:10033000A4000020C5120000810C0000ED010000A7
:10034000A5280000C023DB05802212015A6180220B
:1003500052035A61802212045A61802292025A6129
:100360007047FEE7F8B52A4A2A4B9A4211D01A0084
:10037000294B9A420DD2294A03339B1A9B08013319
:100380009B000022234822498C58845004329A4210
:10039000FAD1234A234B9A420AD2D34321495B180C
:1003A00003218B4304339B18002102C29342FCD1EA
:1003B0001D4AFF211D4B8B439360FD3990235B0049
:1003C0001B4AD1501B4AD3780325AB430224234355
:1003D000D370D3780C27BB4308263343D370164B16
:1003E000987B30229043202210439873997BB94325
:1003F000314399739A7BAA4322439A730F4A5368F5
:1004000080210B4353600E4B98470E4B9847FEE7F5
:1004100034310000000000201C00002004000020F7
:100420001C0000205801002000ED00E0000000004A
:100430000070004100500041004800410040004170
:10044000992E0000A528000010B50422C023DB056A
:100450005A600A490A4B8B62C0231B068B624223F7
:10046000CA5C012082430243D2B2CA5431228B5C5F
:100470000F24A3430343DBB28B5410BD004400415F
:1004800004000040044A116A80235B020B4313629C
:10049000024A034B5A807047000400401E4000008F
:1004A000000C004010B5054B9847054B98470022BB
:1004B00004490548054B984710BDC0468504000017
:1004C0004904000000400042D8000020590E0000FE
:1004D000F8B5CE46474680B5284A294B5A80C027F2
:1004E000FF0520237B60274B274A9A62274E9E6296
:1004F0004525595D042291435955595D0124A14375
:1005000001200143C9B2595532218C46595C363D10
:10051000A946294065465955402179601C49996290
:100520009E6246218C46595C914365465955595DFA
:10053000A1430143C9B2595533218C46595C373D1B
:10054000A94365465955802189007960114999620E
:100550009E6249215E5C96435E545A5CA24302430C
:10056000D2B25A5415395A5C4D4615405D540A4B67
:1005700098470CBC90469946F8BDC046054000001F
:10058000000C00400044004120000240000002C076
:100590004000024000020240910F0000024AD3696D
:1005A00004210B43D36170470004004010B5034B96
:1005B000984703490348044B984710BD9D05000028
:1005C00000400041A400002015110000F0B5C6460F
:1005D00000B5C022D20580235B005360234B244921
:1005E0009962244999624820195C0424A143195452
:1005F000195C0125A94301242143C9B219543421AE
:10060000585C0F26B446B04302273843C0B2585452
:100610008021C9005161916017499962C026360650
:100620009E624A21585CA8432043C0B258541539F1
:100630008846595C604681433943C9B240461954E3
:100640008021516191600D4A9A629E6239395A5CEB
:10065000AA432243D2B25A5414395A5C2638024073
:10066000213002435A5404BC9046F0BD004400417E
:1006700000010240000002C0000400408000004071
:10068000044A136A04210B431362034A034B5A8042
:100690007047C0460004004014400000000C0040B9
:1006A00010B5044B984704490448054B9847054B3F
:1006B000984710BD8106000000080042EC000020B1
:1006C00085140000CD050000F0B5C64600B5C02277
:1006D000D2058023DB035360244B254999622549C9
:1006E00099625620195C0424A1431954195C012510
:1006F000A94301242143C9B219543B21585C0F2658
:10070000B446B04302273843C0B25854802149044C
:10071000516191608026F6059E62174999625821C1
:10072000585CA8432043C0B258541C398846595CD1
:10073000604681433943C9B24046195480210903B8
:10074000516191609E620D4A9A6253215A5CAA439C
:100750002243D2B25A541A395A5C2D380240213001
:1007600002435A5404BC9046F0BDC04600440041C8
:1007700000000240400002C0000100C0080000C0AC
:10078000044A136A20210B431362034A034B5A8025
:100790007047C0460004004017400000000C0040B5
:1007A00010B5044B984704490448054B9847054B3E
:1007B000984710BD8107000000140042C0000020CF
:1007C00085140000C906000010B50248024B984786
:1007D00010BDC04610E000E0E90E0000044A116AB6
:1007E00080231B010B431362024A034B5A8070475C
:1007F000000400401B400000000C004010B5054BF9
:100800009847054B9847020004490548054B98470F
:1008100010BDC046DD070000FD270000002C00428F
:10082000880000201D140000044A116A8023DB02A6
:100830000B431362024A034B5A8070470004004086
:1008400021400000000C004010B5034B98470349BD
:100850000348044B984710BD290800000048004297
:10086000E0000020A90E0000044A936910210B4308
:100870009361034A034B5A807047C046000400400E
:1008800003400000000C004010B5064B984748227A
:1008900005490120054B98470548064B0360064B68
:1008A000984710BD69080000F02E0000AD18000048
:1008B000DC0000200010004039280000F8B5DE46BA
:1008C00057464E464546E0B5BA4B9847C022D2053A
:1008D000012151619160B84BB8489862C020000670
:1008E00098624025585D88435855022050619060B9
:1008F000B3489862C020000698620135585D88436D
:100900005855082757619760AE4882469862C020C4
:10091000000698620235585D884358551020506192
:100920009060A9489862C020000698620135585D21
:100930008843585580200001804650619060A3484C
:100940009862C020000698620735585D8843585564
:1009500080204001506190609D489862C020000650
:1009600098620135585D8843585580208001506059
:10097000984898629848834698624D201C5C483D90
:10098000AC431C541C5C8C431C548020C00150613F
:10099000906092489862C020000698624E2084467B
:1009A000185C8843644618558020000250619060AE
:1009B0008B489862C020000698624F208446185CDD
:1009C0008843644618558020400250619060802022
:1009D000C0059862834C9C625024A1461C5D8C43E8
:1009E000A4464C4666461E558024A4025461946079
:1009F00098627D4C9C625124A1461C5D8C43A446A8
:100A00004C4666461E558024E40254619460986208
:100A1000764C9C625224A1461C5D8C43A4464C46F5
:100A200066461E5580246403546194609862704C3D
:100A30009C625424A1461C5D8C43A4464C466646E9
:100A40001E5580242404546194609862694C9C6211
:100A50005724A1461C5D8C43A4464C4666461E5551
:100A60005060654881469862644898625E201C5CCC
:100A7000AC431C541C5C8C431C548020000650600A
:100A8000484698625E4898625F201C5CAC431C54E8
:100A90001C5C8C431C54253015502430594C1C5080
:100AA0005C461C50C2269C5DAC439C559C5D8C43AF
:100AB0009C559424A44617513A3E975154461C50D5
:100AC000C02424061C50C3241F5D8F431F5580275C
:100AD0007F006446175197514B4F1F50C024240686
:100AE0001C50C8241F5D8F431F558027BF006446DC
:100AF00017519751454F1F50C02424061C50C9243C
:100B00001F5D8F431F558027FF0064461751975183
:100B10003F4C1C50C02424061C50CA24A3461C5D14
:100B20008C43A2465C4657461F55644647461751BC
:100B30009751264C1C50C02424061C5043369C5D03
:100B40008C439C558024E403473E94514A461A50F6
:100B5000304A1A50D622985CA8439854985C88432F
:100B600098542D4B98472D4B98472D4B98472D4B1C
:100B700098472D4B98472D4B9847254B9B69202232
:100B80001343234A93612A4A2A4B5A802A4B984797
:100B900002002A492A482B4B98472B4B98472B4B4E
:100BA00098472B4B98473CBC90469946A246AB468B
:100BB000F8BDC046851A0000004400410100004015
:100BC0000200004008000040100000400008004003
:100BD0000010004000200240000002C00040004021
:100BE00000800040010000C0020000C0040000C0FE
:100BF000100000C0800000C000000240004002C0A1
:100C0000008002C0040002400001004000020040D9
:100C100000040040400002C0A5040000D104000010
:100C2000AD050000A1060000A1070000C9070000F3
:100C300004400000000C0040DB21000000140040D4
:100C40000401002045170000FD07000049080000CE
:100C500089080000064B1A88064B110A19705A7051
:100C6000054B1A88054B110A19805A807047C046F7
:100C700082000020500100201400002054010020B8
:100C800030B5A1B0144C2000144B98470500144A0D
:100C9000138801331380134B9847134B1B786A4614
:100CA0001370124B1B785370114B1B789370114BC0
:100CB0001A786946CA705B780B710F4B1A884A71B3
:100CC0005B886A468B710D4B19882B0020000C4CF9
:100CD000A04721B030BDC046A4000020751300001D
:100CE00082000020550C00007C000020180000202D
:100CF000800000205001002054010020140000203A
:100D00000512000010B58021C901044B1980012291
:100D10000348044B9847044B984710BD140000202B
:100D2000A4000020C5120000810C000007490A78C9
:100D300012024B781343064A1380064A13881B029B
:100D400052881343044A13807047C0465001002064
:100D500082000020540100201400002010B5A0B033
:100D6000144C2000144B98470300144A11886A461B
:100D70002000134CA0476B461A78124B1A706B4632
:100D80005A78114B1A706B469A78104B1A70104BA8
:100D90006A46D2781A706A4612795A700D4B6A46C2
:100DA00052791A806A4692795A800B4B984720B044
:100DB00010BDC046A40000207513000014000020E0
:100DC0005D1100007C000020180000208000002041
:100DD00050010020540100202D0D0000174B1B88EE
:100DE000174A934210D9174A934212D9164A93428E
:100DF00014D9164A934216D9154A934218D98A2211
:100E0000D201144B1A8003E08022D201114B1A80C8
:100E100070478222D2010F4B1A80F9E78422D20157
:100E20000C4B1A80F4E78622D2010A4B1A80EFE7B6
:100E30008822D201074B1A80EAE7C04682000020D0
:100E4000571B0000AF360000075200005F6D000026
:100E5000B78800001400002070B504000D000028C1
:100E60000CD00800431E9841C0B239220449054BFA
:100E7000984729002000044B984770BD0020F4E7F4
:100E80000C2F0000AD180000251A0000EFF31083AE
:100E9000036072B6BFF35F8F7047BFF35F8F036865
:100EA00083F310887047000070B505000C0000281F
:100EB00011D00800431E9841C0B232220749084BA6
:100EC000984721002800074B9847002802D10023AB
:100ED0006B60AB6070BD0020EFE7C046282F0000BC
:100EE000AD180000F91A000010B5024B1860024B53
:100EF000984710BD500000207526000010B5044B27
:100F00001C68044B984701002000034B984710BD14
:100F100050000020651A00008926000010B5044B1F
:100F20001C68044B984701002000034B984710BDF4
:100F3000500000207D1A000089260000F8B5134BF0
:100F4000D968884205D0012203270024FF261D000E
:100F500016E00123DB000D4A9B58002B00D0984778
:100F6000F8BD013AD7B2A742FAD33B195B10DAB207
:100F7000022AF5D83340D900691849688142E9D07E
:100F80008842EED90132D4B2EDE7C04654000020C9
:100F900010B5074B01214942596000221A60D960FF
:100FA0009A6059611A610348034B984710BDC046C7
:100FB000540000203D0F0000251B0000F8B5DE4660
:100FC00057464E464546E0B5344B5B6898421CD0C8
:100FD000324BDB68984216D0304B5B69834210D0AD
:100FE00000293ED02D4B1B68002B51D02B4B9B680A
:100FF000002B39D0294B1B69002B46D00D204042D5
:1010000029E0022302E0012300E00023DB00234A61
:10101000995000291CD10021214B98471BE008332F
:101020009C4215D01A0059686F688F42F7D201317F
:10103000F5D019688C4659688B4649464144C0C969
:10104000C0C2624651460A60524659465160E6E7C0
:101050000121134B98473CBC90469946A246AB46AB
:10106000F8BD0D204042F6E7012201240B4BE400BD
:10107000E1501B195860094CD600B246A244230027
:101080001834B04655469946CCE702220224EDE7D3
:10109000024B196058600022EDE7C0465400002062
:1010A000BD1B000010B50121014B984710BDC04683
:1010B000BD1B000010B50021014B984710BDC04674
:1010C000BD1B000010B54369002B00D0984710BD30
:1010D00010B58369002B00D0984710BD70B504008F
:1010E0000D00431E9841C0B21822FF320649074B3B
:1010F00098472000064B98470138054201D100204F
:1011000070BD0E204042FBE7442F0000AD180000E8
:10111000011E000070B505000C00002812D0080068
:10112000431E9841C0B238220749084B9847210016
:101130002800074B9847002803D1064B2B60064B2D
:101140006B6070BD0020EEE7442F0000AD1800007A
:10115000A11D0000C5100000D1100000F0B5CE4662
:1011600000B582B004000F0016001D00002818D042
:10117000002A35D00120002B14D156221C49002012
:101180001C4B9847019420001B4B98478146200038
:101190001A4B98474B465843874216D90E20404277
:1011A0001AE0002056221249124B98470194200061
:1011B000114B984781462000104B98474B465843A7
:1011C000B8420FD3EB1998420FD32B0032003900ED
:1011D00001980B4CA047002002B004BC9146F0BD22
:1011E0000020DFE70E204042F6E70E204042F3E702
:1011F000442F0000AD180000011E0000051E000075
:101200000B1E0000F0B5C64600B582B004000D000C
:1012100017001E00002818D0002A3CD00120002B07
:1012200014D16A2221490020214B984701942000C3
:10123000204B9847804620001F4B98474346584311
:10124000854216D90E20404221E000206A2217492B
:10125000174B984701942000164B98478046200072
:10126000154B984743465843A84216D373199842E2
:1012700016D32900019C2000104B9847002812D15A
:1012800033003A00290020000D4CA047002002B096
:1012900004BC9046F0BD0020D8E70E204042F6E79F
:1012A0000E204042F3E711204042F0E7442F0000B7
:1012B000AD180000011E0000051E000045200000C2
:1012C0005D1E0000F0B583B004000D00160000287C
:1012D00017D00120002A15D19A221F4900201F4B48
:1012E0009847019420001E4B9847009020001D4B0A
:1012F00098470700290020001B4B9847002816D06C
:1013000022E000209A221449144B984701942000AF
:10131000134B984700902000124B98470700290074
:101320002000114B984700280ED1BE420ED80099DC
:1013300028000E4B98478019B8420AD8320029007D
:1013400001980B4B9847002003B0F0BD0D204042A0
:10135000FAE70D204042F7E7442F0000AD180000E7
:10136000011E0000051E0000DD1000002D2D0000F4
:10137000791F000010B50400431E9841C0B2F72247
:101380000349044B98472000034B984710BDC046C3
:10139000442F0000AD180000011E000070B50600CB
:1013A0000C00150000280DD00800431E9841C0B263
:1013B00034220549054B984733682A002100300044
:1013C000984770BD0020F3E75C2F0000AD180000C7
:1013D00070B506000C00150000280DD00800431E53
:1013E0009841C0B23D220549054B984773682A00D1
:1013F00021003000984770BD0020F3E75C2F00000B
:10140000AD18000010B54369002B00D0984710BDFF
:1014100010B58369002B00D0984710BD70B505004A
:101420000C00002811D00800431E9841C0B233229E
:101430000749084B984721002800074B9847074B5E
:101440002B60074B6B60002070BD0020EFE7C046AB
:10145000702F0000AD1800001927000005140000CF
:101460001114000010B5054B9847002803D1044B18
:101470009847002010BD0D204042FBE78D20000062
:101480005D1A000070B504000D00002816D0080099
:10149000431E9841C0B2402209490A4B98476560F3
:1014A000201D2900084B9847002806DB074BA38224
:1014B000074B2361074BE360002070BD0020EAE783
:1014C000882F0000AD180000652200000080FFFF9B
:1014D000DD150000A115000010B50400431E984161
:1014E000C0B257220349044B9847201D034B98472D
:1014F00010BDC046882F0000AD1800005D2400001C
:1015000070B504000D00431E9841C0B26322044927
:10151000044B9847201D2900034B984770BDC046D7
:10152000882F0000AD1800009124000070B5040061
:101530000D00431E9841C0B26F220449044B9847E6
:10154000201D2900034B984770BDC046882F00001E
:10155000AD180000D124000030B587B004000D00A4
:10156000002814D00800431E9841C0B2B322094994
:10157000094B98472B6803936B680493AB680193FE
:101580000593201D03A9054B984707B030BD0020E7
:10159000ECE7C046882F0000AD1800000D250000C4
:1015A00070B584B004000E001500431E9841C0B20F
:1015B000A3220749074B98470023029301960395FE
:1015C00020000C3801A9044B984704B070BDC046F8
:1015D000882F0000AD1800005915000070B584B0C8
:1015E00004000E001500431E9841C0B2872207492F
:1015F000074B9847029600230193039520000C386F
:1016000001A9044B984704B070BDC046882F000064
:10161000AD1800005915000070B504000D00002839
:101620000BD00800431E9841C0B2BD220449054BAF
:1016300098470C342C60002070BD0020F5E7C046B0
:10164000882F0000AD180000F8B5CE46474680B59B
:10165000814603689C46002B05D08E681C0000253F
:101660000127BF1A0DE0124B984718E0FB18A0683D
:1016700080464344B3420CD223682500002B0BD094
:101680001C0063689342F1D8A068804643449B1ACB
:10169000F0E7A44507D02C002000064B98470CBC6F
:1016A00090469946F8BD4846014B9847F7E7C04633
:1016B000D918000005190000F0B5C64600B582B083
:1016C000070044690369013398460361037EDB0721
:1016D00011D4037E9B070ED4002C10D043466268C1
:1016E0009B1AA26893420AD314239C4684446346FF
:1016F0000193124E14E03B7E022213433B7602B06C
:1017000004BC9046F0BD7D69E36820009847002D39
:10171000F5D02C0043466A689B1AAA689342EED320
:101720000198B047237C012BEDD1434663604246CC
:1017300021000198024B9847E5E7C0460D190000CB
:101740004916000070B505000C00002811D00800F3
:10175000431E9841C0B23B220749084B98472100DD
:101760002800074B984700232B61064B2B60002075
:1017700070BD0020EFE7C046A42F0000AD180000A8
:10178000E5200000B916000010B50400431E984182
:10179000C0B253220749084B98472000074B98478F
:1017A000002804D12000064B9847002010BD1120CE
:1017B0004042FBE7A42F0000AD180000C921000043
:1017C0004121000010B50400431E9841C0B26122BF
:1017D0000749084B98472000074B9847002804D03A
:1017E0002000064B9847002010BD11204042FBE727
:1017F000A42F0000AD180000C921000095210000B1
:1018000070B582B004000D00002824D00800431EEB
:101810009841C0B27A221E491E4B9847237E01226E
:101820001343237626001436290030001A4B9847BC
:10183000002812D123696B60226929003000174B00
:101840009847237E012293432376237E00209B0723
:101850000FD402B070BD0020DCE7237E0122934349
:1018600023767E320A4900200A4B984712204042D4
:10187000EFE701A80A4B9847237E02229343237681
:101880002000084B984701A8074B98470020E0E745
:10189000A42F0000AD180000B51800004916000084
:1018A0008D0E0000D92100009B0E0000002800D101
:1018B00000BE70470368002B0AD08B420AD01B6819
:1018C000002B03D09942FAD1012000E0002070479C
:1018D0000020FCE70120FAE770B504000D00064B7C
:1018E000984701235840C0B239220449044B984715
:1018F00023682B60256070BDB5180000BC2F000068
:10190000AD18000003680B60016070470368002B8E
:1019100001D01A680260180070470020704700006C
:1019200070B504000D00394BC01842424241D0B29C
:1019300094223749374B9847374B1A685201E023B6
:10194000DB001A40354B596849011B68DB0E0B431D
:10195000FF210B401A43637EDB09FCD123789B07F0
:1019600004D500232370637EDB09FCD1012323709F
:10197000637EDB09FCD12285EA00521B9200284BD2
:101980009B189A786270DA78A2701A79E2701A7CE1
:101990002275DA8AA2841A8BE284997E2A22A154C3
:1019A000DB88A380637EDB09FCD1EB005B1B9B0023
:1019B0001B4AD318DB682361637EDB09FCD1EB0093
:1019C0005B1B9B00164AD3181B7A2372637EDB09CC
:1019D000FCD1EB005B1B9B00114AD3185B8AA383ED
:1019E000637EDB09FCD1EB005B1B9B000C4AD31828
:1019F0009B8A2384637EDB09FCD1EB005D1BAD0079
:101A0000074B5D196B782370002070BD00C0FFBDCF
:101A1000F82F0000AD1800002460800020608000D6
:101A2000DC2F000070B505000C00431E9841C0B2C9
:101A3000C5220649064B98472C602000054B984765
:101A400001002000044B984770BDC046F82F0000ED
:101A5000AD1800001B19000021190000BFF34F8FC3
:101A600030BF704710B5030064205843013864212B
:101A7000014B9847013010BD2D2D0000FA239B002B
:101A80005843704710B5064B5A685A60054B984743
:101A9000054B9847054B9847FF20054B984710BDCD
:101AA00000400041C52000001D2600006526000002
:101AB000F51C0000C379DB09FCD1C379DB09FCD13B
:101AC00003789B0707D500230370C379DB09FCD19A
:101AD000C379DB09FCD101230370C379DB09FCD195
:101AE000C379DB09FCD18370012242700370C37992
:101AF000DB09FCD10020704770B505000C00431EC7
:101B00009841C0B249220449044B98472C602000F8
:101B1000034B984770BDC04610300000AD18000060
:101B2000B51A0000224A5378DB09FCD1204A5378C9
:101B3000DB09FCD11E4B1B789B070AD500221C4BEE
:101B40001A701A005378DB09FCD1194A5378DB0963
:101B5000FCD10122164B1A701A005378DB09FCD114
:101B6000134A5378DB09FCD1114B00229A7098225A
:101B700092005A605A61DD2212059A61D022DA6120
:101B80001A7802210A431A701A005378DB09FCD133
:101B9000084B102280215A50BFF34F8FBFF36F8F35
:101BA0000131FF315A501A60034B18600020704712
:101BB0000018004000E100E06C000020052809D07A
:101BC000062805D00223092805D00D204042704781
:101BD000012300E00023DB000A4A9A5CFF2A0ED0B2
:101BE000002906D101239340074A93601361002026
:101BF000EDE701239340044AD3600020E7E70D207E
:101C00004042E4E72830000000180040F0B5CE461E
:101C1000474680B583B0314B1A69D9680A400192B2
:101C2000019A1A612E4B1868431E9841C0B2D22205
:101C30002C492D4B9847019B002B4AD001235B4236
:101C400099462A4D3BE04346DB00284AD3185B689F
:101C500099464B46013303D0214B1B6848469847B1
:101C6000019B4246A240934301930198204B984721
:101C7000013844B2631C18D0062CE4D00621424639
:101C800003270020FF260BE0013AD7B2B842E0D884
:101C90003B185B10DAB23340D900495DA142D3D082
:101CA0008C42F1DD0132D0B2F0E70C4B1A69D968F1
:101CB0000A400192019A1A61019B002B09D00198F8
:101CC0000B4B9847013844B201239846631CD3D18B
:101CD000EBE703B00CBC90469946F0BD00180040FD
:101CE0006C00002040300000AD18000028300000DB
:101CF000452E0000C3070AD5054B802252009A608A
:101D0000832252025A601A005378DB09FCD17047D3
:101D1000000C0040F8B504000D0017001E00012360
:101D20004B4001201840C52252001949194B9847D1
:101D300068080122237D1342FCD0174B2380012227
:101D4000237D1342FCD02023FF332383002E0ED0AB
:101D50001F3BFF3B290099430023FD5CAAB23E2BA9
:101D600010D90A8002339BB202319E42F5D801227B
:101D7000237D1342FCD0E061084B069A13439BB2CB
:101D80002380F8BDFA18527812022A43E9E7C046C8
:101D900058300000AD18000044A5FFFF00A5FFFF6C
:101DA00070B505000C0000281DD0104BC818434228
:101DB0005841C0B246220E490E4B98472C616268CA
:101DC0009E23134063600C4B1D600C4B202280212E
:101DD0005A50BFF34F8FBFF36F8F0131FF315A500D
:101DE0001A60002070BD0020E4E7C04600C0FFBEBE
:101DF00058300000AD1800007000002000E100E045
:101E00004020704780204001704770B54C0805693C
:101E10000126287D3042FCD02020FF30288300207E
:101E2000CD0705D50134013081430988090A1170B5
:101E3000984211D212186400241A5D1E03E0023089
:101E40000232834208D92118098889B2117085426B
:101E5000F5D9090A5170F2E770BD0000F0B5DE4611
:101E600057464E464546E0B5C5B0834616001D00B0
:101E70000C002EE0BA4667465B461A690121137DC5
:101E80000B42FCD02023FF3313834B465B08D36106
:101E9000364B13802B003D004F46A0460397B146BA
:101EA0005E469B46039BFA1A04AB9C46624404239D
:101EB00000933C33390030692D4CA0474037BD4278
:101EC000F0D144465D46B3464E462B19013B9A4538
:101ED00044D2FF2322009A4391464B449A468023E2
:101EE0005B004B449846170042460392A0464C467E
:101EF000B1465E46AB463A1B04AB9C466244402367
:101F0000390030001B4DA8474037039B9F42F2D158
:101F10005D46B3464E46A14644464B46E31A9909F0
:101F20003F2213405445A7D8002DA5D0BC465746A4
:101F30008A0104A8804642443078D05401333F22BD
:101F400013405A425A41891801340136013DA742D3
:101F500090D3002DECD1BA4667468DE745B03CBC26
:101F600090469946A246AB46F0BDC04602A5FFFF8B
:101F7000151D00000B1E0000F0B5D6464F46464624
:101F8000C0B590B005000C001600FF230F009F4362
:101F90004022FF216846284B9847BC4248D07B1C12
:101FA000FF339A46C0239946A144244F40236A46F2
:101FB00021002800B847013E002E33D04034A2450E
:101FC00001D04C45F2D15446032E1FD9544630005F
:101FD00001212023FF339846194F2A69137D0B42B4
:101FE000FCD0434613836308D36117800134FF3468
:101FF00004380328F1D857460137FF37341FA408A7
:102000002402E41903231E40002E0BD000270B4BA3
:10201000984640236A4621002800C04740340137D3
:10202000BE42F6D810B01CBC90469946A246F0BD00
:10203000A246032ECAD8E7E7E12E00005D1E00008D
:1020400002A5FFFF0369188C8900090C01238B404E
:10205000184043425841C0B27047000010B50A4BC7
:10206000186803691A7DD20704D50368002B00D0D5
:10207000984710BD1A7D9207FBD502221A75436856
:10208000002BF6D09847F4E770000020022804D90E
:1020900003280BD00D20404207E0084A13690421B1
:1020A0008B431361064B587000207047034A136935
:1020B00004210B4313610020F7E7C04600ED00E068
:1020C00000040040064B1A7AD2B21A725A7AD2B27F
:1020D0005A729A7AD2B29A72DA7AD2B2DA727047B5
:1020E0000004004070B504000D00431E9841C0B2CA
:1020F00033221049104B9847E56001232B80AB7ABF
:10210000DB09FCD1E268937ADB09FCD180331380D0
:10211000937ADB09FCD1E26893698023DB00936149
:10212000937ADB09FCD10133E268D371034B1C6065
:10213000002070BD78300000AD1800007400002051
:1021400010B5041E1DD0C068431E9841C0B26A225B
:102150000D490E4B984708220D4B1A60E26813692F
:1021600000231361937ADB09FCD1E268937ADB09DF
:10217000FCD1138802210B431380937ADB09FCD135
:1021800010BD0020E3E7C04678300000AD18000025
:1021900000E100E010B5041E10D0C068431E984155
:1021A000C0B277220649074B9847E268138802219C
:1021B0008B431380937ADB09FCD110BD0020F0E73C
:1021C00078300000AD180000C268937ADB09FCD1BA
:1021D00010888007C00F70477047002070470000CC
:1021E00010B5074B1C68E3681B7ADB0707D523682B
:1021F000002B01D020009847E36801221A7210BD1D
:1022000074000020C369DB0709D40368022213436A
:1022100003600132C3691A42FCD1002070470420D8
:102220004042FBE710B5012915D8C36905241C42BB
:1022300014D143680234A3431C0007230B402343FB
:1022400043600724C3691C42FCD14B1E99410131F4
:102250001170002010BD0D204042FBE704204042D9
:10226000F8E7000070B506000C00714BCB189B0A14
:10227000DBB2002B00D187E0032B08D0002800D16F
:10228000C6E0002900D0CBE0002500200AE0023B98
:102290001D01EB18674D1835ED18002EF5D0012003
:1022A000002CF2D0644A6549654B9847002D00D157
:1022B000ABE0E369DB071CD429781C231940032217
:1022C000E3691A42FCD123689B070BD523680222DD
:1022D000934323600132E3691A42FCD10222E3698D
:1022E0001A42FCD101230B4323600322E3691A4203
:1022F000FCD10122E3691A42FCD134602B781C2204
:102300001340082B42D02000431E9841C0B24D4AD2
:102310004A494B4B98472B786A7812021A43AB789C
:102320001B041A43EB781B061343474A13402360F0
:102330000832FF32E3691A42FCD12B796A79120222
:102340001A43AB791B041A43EB791B0613433F4A2C
:10235000134080229202134363600722E3691A420A
:10236000FCD12B7B23736A7B3023E2542B79072229
:1023700013405A1E934101333371AA7BEB7B1B023E
:102380001343F380002070BD002381E72000431E2B
:102390009841C0B22E4A2949294B98472B786A7830
:1023A00012021A43AB781B041A43EB781B06134343
:1023B000254A134023600832FF32E3691A42FCD1F8
:1023C0002B796A7912021A43AB791B041A43EB7911
:1023D0001B0613431F4A13401F4A1343636007221F
:1023E000E3691A42FCD12B7A6A7A12021A43AB7A59
:1023F0001B041A43EB7A1B06134363626A7B302388
:10240000E254E369002BFCD1B0E70D204042BAE76B
:10241000094A0A4900200A4B98470D204042B2E77A
:10242000054A06490120064B98470D204042AAE77D
:1024300000F8FFBD9030000021090000CC30000002
:10244000AD180000EB080000FCFEFFFFBF1DFDFF04
:10245000FF080000BFDDFDFF4002020010B5041EB2
:102460000BD00068431E9841C0B2054A0549064B8F
:1024700098472068054B984710BD0020F5E7C046F7
:102480007C090000CC300000AD18000005220000DF
:1024900070B505000C0000280FD00068431E98415D
:1024A000C0B2084A0849094B98472B68DA69D20735
:1024B00005D4E4B21C73002070BD0020F1E70420B5
:1024C0004042F9E7E3090000CC300000AD180000FD
:1024D00070B505000C0000280DD00068431E98411F
:1024E000C0B2064A0649074B98472A1D28682100B2
:1024F000054B984770BD0020F3E7C046F109000086
:10250000CC300000AD18000025220000F0B5DE46FA
:1025100057464E464546E0B583B081460E000468F6
:102520000B6898464D6803790193002815D0200068
:10253000431E9841C0B2364A3649374B9847E36943
:102540005B073FD10323E0691840FCD123689B0758
:102550003BD5020001239C4609E00020EBE7013552
:1025600001325BB2002B16DBB368834227D9237E8E
:10257000DBB2042119422BD0A76A002DF0D02F70B6
:1025800001990129EBD93F0A6F700235E8E7012173
:102590008B46D84437E001235B4263838133237643
:1025A000132040420322237E1342FCD003232376D0
:1025B00003B03CBC90469946A246AB46F0BD934260
:1025C000D5D8EFE704204042F2E714204042EFE77D
:1025D0009042C6D867461F42C3D04F46FF88BA46CE
:1025E0004746002F0FD03F78BA4601990129CED92E
:1025F00047467F783F02BB46574659460F43BA4687
:1026000002218B46D84401305746A762A9E7C0464D
:10261000810A0000CC300000AD1800000E4B1A6A91
:10262000196A0E480240890F89070D4801430A4381
:102630001A629A6902210A439A611A7F1D310A407F
:102640001A7719000822CB681A42FCD0024A136A92
:1026500080210B4313627047000800400000FF0F09
:1026600002030000024A936902218B439361704781
:1026700000080040024B034A5A6005221A60704766
:1026800010E000E0FFFFFF0070B50B0E5E1EF6B21B
:10269000002B13D034000E4A0E4D802040025560AE
:1026A000956013680342FCD0013CE4B2FF2CF6D1E4
:1026B0003306F61A084B9C4661447118044B596066
:1026C00099601900802252020B681342FCD070BD41
:1026D00010E000E0FFFFFF00010000FF10B50A4B13
:1026E0009C466044800A0330084B1B78C0B283428A
:1026F00008D05A22FF3206490020064B9847012095
:10270000404210BD0020FCE700D4FFBD00000020C7
:10271000E8300000AD18000070B505000C0008009E
:10272000304B98472C61E37BDB09FCD123889B0766
:1027300004D500232380E37BDB09FCD10123238024
:10274000E37BDB09FCD183001B189A00264B9B1806
:102750005A88228019792172DB8863810C23134007
:10276000082B29D0002B38D11F4983001A1892005A
:102770008A1892892283181880000818038A6383B4
:102780001A4B9C4225D01A4B9C466444A40A12342E
:10279000E3B2220624D41F221A4001239340154A93
:1027A00080215350BFF34F8FBFF36F8F0131FF3143
:1027B00053501360002070BD0B4983001A1892001B
:1027C0008A18D268A2611818800008180369E361AA
:1027D000D6E7094B1D601223DDE701204042EAE7FE
:1027E0000020E8E7DD26000000000020002C004269
:1027F00000D4FFBD00E100E0780000200020704719
:1028000070B50C4B1D682C69A37BDB0706D5012333
:10281000A3732B68002B01D028009847637B9B078C
:1028200006D50223A3736B68002B01D028009847BC
:1028300070BDC0467800002010B5041E25D0006889
:10284000431E9841C0B24F221449154B9847226845
:10285000D379DB09FCD11378DB0918D1D379DB09F3
:10286000FCD113789B0715D4137804218B43137084
:10287000D379DB09FCD1226853780F218B43537045
:10288000D379DB09FCD1002010BD0020DBE711204B
:102890004042F9E711204042F6E7C046FC30000014
:1028A000AD18000010B582B00023374A1370374AC4
:1028B0001370374A1370374B9847374B9847374B4D
:1028C0009847374B9847374B9847002847D1364BA6
:1028D0009847002301931C3300930C3B15220821D9
:1028E0001420324CA0470122274B1A70304B9847D6
:1028F000304B9847304B9847254B1B78002B1BD10A
:102900002E4B18782E4B98471F4B1B78002B09D164
:102910002A4A13790133DBB21371052B02D91378DC
:1029200001331370254A13780133DBB21370002B87
:1029300020D10122164B1A70224B198801222248FD
:10294000224B9847224B98472248234B9847234BCA
:1029500098470220224B9847002002B010BD214B1F
:102960009847144B9847144B9847144B1878144BBE
:102970009847C1E7E121090101201B4B98470F4A05
:102980001378013B1370D4E7570100202401002085
:102990005601002015010000ED2C0000750100001B
:1029A000A1010000D12C00000D2C0000492C0000DA
:1029B000050D00005D0D0000DD0D00007C00002015
:1029C000ED01000014000020A4000020C51200004A
:1029D000810C0000881300001D0F0000450300005B
:1029E00065140000B92C0000412A0000002805D120
:1029F00080221202C023DB055A6170478022120236
:102A0000C023DB059A61F8E7F8B50A4B9847C02662
:102A1000F6058027FF01B761FA256D002800064CF6
:102A2000A04777612800A047044A13680133136068
:102A3000F8BDC046ED290000FD0E00008400002016
:102A400070B505000C000822C023DB059A61142034
:102A5000074B9847002C06D0064E2800B047013C93
:102A6000A4B2002CF9D10822C023DB055A6170BD45
:102A70001D0F0000092A000070B505000A21054B52
:102A8000984704010A212800034B98476418E0B2D4
:102A900070BDC0462D2D0000392E0000F8B500AFE6
:102AA0000E00551C13000833DB08DB006946CB1A07
:102AB0009D4669460870012D0ADD01240123F018A6
:102AC0000138007808550133DBB21C009D42F6DC6A
:102AD000C024E405012565610132034B1868034BEE
:102AE0009847A561BD46F8BD200100209D13000058
:102AF000F0B583B00E0000926B46D91D0870C0255A
:102B0000ED0501276F61074C01222068064B9847AD
:102B10006B461A8820683100044B9847AF6103B0B8
:102B2000F0BDC046200100209D130000D11300001D
:102B300000B583B001A915230B7001229020024B30
:102B4000984703B000BDC0469D2A000000B583B081
:102B500001A91B230B7001229120024B984703B05F
:102B600000BDC0469D2A000000B583B001A9002326
:102B70000B7001229D20024B984703B000BDC04658
:102B80009D2A000000B583B001A96C230B700122BF
:102B90009220024B984703B000BDC0469D2A00001A
:102BA00000B583B001A900230B7001229320024BD2
:102BB000984703B000BDC0469D2A000030B583B0E1
:102BC00001ACA1232370012221009F20044DA847BE
:102BD00048236370012221009C20A84703B030BD28
:102BE0009D2A000030B583B001AC1423237001226C
:102BF00021009820044DA847302323700122210092
:102C00008A20A84703B030BD9D2A000010B5074BAD
:102C10009847074B9847074B9847074B9847074BF0
:102C20009847074B9847074B984710BD312B00003A
:102C30004D2B0000692B0000852B0000A12B00000C
:102C4000BD2B0000E52B0000F0B585B004000F009F
:102C5000009201930AAB1E780BAB1D780522002170
:102C600002A8124B98472000114CA04702A94871B6
:102C70003800A04702A908710098A04702AAD070A6
:102C80000198A04702AB98703000A04702AB587083
:102C90002800A04780235B42184302AB187006222D
:102CA00019008120034B984705B0F0BDE12E0000CC
:102CB000792A00009D2A000000B583B0012201A9F5
:102CC0000F20024B984703B000BDC046F12A000018
:102CD00010B582B001AC012221000120024B9847BF
:102CE0002078C00902B010BDF12A000010B5084CD0
:102CF00008492000084B984708492000084B98478E
:102D000000212000074B98472000074B984710BD33
:102D1000EC0000202001002019160000A086010010
:102D2000011500002D150000D914000000224308F1
:102D30008B4274D303098B425FD3030A8B4244D383
:102D4000030B8B4228D3030C8B420DD3FF220902C5
:102D500012BA030C8B4202D31212090265D0030B84
:102D60008B4219D300E0090AC30B8B4201D3CB037A
:102D7000C01A5241830B8B4201D38B03C01A5241BC
:102D8000430B8B4201D34B03C01A5241030B8B42BE
:102D900001D30B03C01A5241C30A8B4201D3CB02A9
:102DA000C01A5241830A8B4201D38B02C01A52418E
:102DB000430A8B4201D34B02C01A5241030A8B4291
:102DC00001D30B02C01A5241CDD2C3098B4201D3A9
:102DD000CB01C01A524183098B4201D38B01C01A27
:102DE000524143098B4201D34B01C01A524103099E
:102DF0008B4201D30B01C01A5241C3088B4201D34D
:102E0000CB00C01A524183088B4201D38B00C01AF9
:102E1000524143088B4201D34B00C01A5241411A20
:102E200000D20146524110467047FFE701B500202D
:102E300000F006F802BDC0460029F7D076E77047DB
:102E40007047C04610B50023002802D000F004F8F7
:102E5000431C180010BDC046414208401C210123FC
:102E60001B04984201D3000C10391B0A984201D36D
:102E7000000A08391B09984201D30009043902A24B
:102E8000105C401A7047C0461B1C1D1D1E1E1E1ED6
:102E90001F1F1F1F1F1F1F1F70B500260C4D0D4C3D
:102EA000641BA410A64209D1002600F033F90A4D94
:102EB0000A4C641BA410A64205D170BDB300EB58A8
:102EC00098470136EEE7B300EB5898470136F2E732
:102ED00020310000203100002031000024310000AA
:102EE00003008218934200D1704719700133F9E74B
:102EF0002E2E2F68616C2F696E636C7564652F6868
:102F0000616C5F7764742E68000000002E2E2F68BD
:102F1000616C2F7372632F68616C5F6164635F73B0
:102F2000796E632E630000002E2E2F68616C2F7364
:102F300072632F68616C5F6461635F73796E632E87
:102F4000630000002E2E2F68616C2F7372632F6850
:102F5000616C5F666C6173682E6300002E2E2F68B3
:102F6000616C2F7372632F68616C5F696F2E6300F1
:102F70002E2E2F68616C2F7372632F68616C5F70E7
:102F8000776D2E63000000002E2E2F68616C2F736A
:102F900072632F68616C5F7370695F6D5F73796EC8
:102FA000632E63002E2E2F68616C2F7372632F685F
:102FB000616C5F74696D65722E6300002E2E2F6840
:102FC000616C2F7574696C732F7372632F757469DC
:102FD0006C735F6C6973742E630000000002000064
:102FE00000000000000000000000000000000000E1
:102FF00000000000000000002E2E2F68706C2F6172
:1030000064632F68706C5F6164632E63000000006E
:103010002E2E2F68706C2F6461632F68706C5F6454
:1030200061632E6300000000050000000500000041
:103030000600000006000000090000000900000072
:103040002E2E2F68706C2F6569632F68706C5F651A
:1030500069632E63000000002E2E2F68706C2F6EA7
:10306000766D6374726C2F68706C5F6E766D6374CE
:10307000726C2E63000000002E2E2F68706C2F7271
:1030800074632F68706C5F7274632E6300000000BD
:103090000000000000000000000000000000000030
:1030A00000000000000000000C0001000000020011
:1030B000000000000900FF01000C000100000002F8
:1030C00000000000000900FF010300002E2E2F6801
:1030D000706C2F736572636F6D2F68706C5F7365B2
:1030E00072636F6D2E6300002E2E2F68706C2F742C
:1030F000632F68706C5F74632E6300002E2E2F6840
:10310000706C2F7764742F68706C5F7764742E63B3
:1031100000000000F8B5C046F8BC08BC9E467047E9
:10312000DD000000F8B5C046F8BC08BC9E467047FC
:04313000B5000000E6
:103134000300600300000000320000007C00000077
:0C3144003E0000000040000004000000FD
:00000001FF
