:10000000502100201903000017030000170300000F
:1000100000000000000000000000000000000000E0
:1000200000000000000000000000000017030000B6
:10003000000000000000000017030000170300008C
:100040001703000017030000170300002D1900001C
:10005000D1140000FD170000170300001703000073
:100060001703000017030000170300001703000028
:100070001703000017030000170300001703000018
:100080001703000017030000091D000017030000FC
:10009000170300000000000000000000170300002C
:1000A00017030000170300001703000017030000E8
:1000B0000000000010B5064C2378002B07D1054B3B
:1000C000002B02D0044800E000BF0123237010BDC4
:1000D00018000020000000001C240000084B10B590
:1000E000002B03D00749084800E000BF0748036819
:1000F000002B00D110BD064B002BFBD09847F9E731
:10010000000000001C0000201C2400001C24000033
:100110000000000010B5014B984710BD0908000011
:10012000012210B5024B03481A70034B984710BDCB
:10013000340000200001002095110000012210B5BC
:10014000024B03485A70034B984710BD34000020FF
:100150000001002095110000012210B5024B034858
:100160009A70034B984710BD340000200001002016
:10017000951100000A23064910B5CB60054B0431E8
:10018000CB60012304480B74044B984710BDC04654
:10019000340000207502000000010020DD11000085
:1001A00010B506200B4CA0470520A0470920A0470A
:1001B000094C0A490520A04709490620A0470949DA
:1001C0000920A047084C0620A0470520A047092089
:1001D000A04710BD450E0000990D00005901000018
:1001E0003D01000021010000350E000000280ED165
:1001F000C0238022DB0512045A61802212015A6159
:10020000802252035A61802292025A61704701286B
:1002100005D1C0238022DB0512049A61EDE7022894
:1002200008D1C0238022DB0512049A6180221201CA
:100230009A61E5E703280BD1C0238022DB05120475
:100240009A61802212019A61802252039A61DAE750
:100250000428DBD1C0238022DB0512049A618022AE
:1002600012019A61802252039A61802292029A615D
:10027000CCE70000164B10B55878002814D0154C68
:1002800022780132227000225A70134B134898478B
:10029000134B012219881348134B9847134B984767
:1002A0002078134B984710BD9978002905D0094C48
:1002B00098702278013A2270E7E71A78002AF2D083
:1002C00004488278197001320A4B82709847EAE735
:1002D0003400002078000020B91100000001002047
:1002E00014000020A00000202D0F0000D10A000003
:1002F000ED010000911D0000C0238022DB051201EA
:100300005A61802252035A61802212045A6180226B
:1003100092025A617047FEE72148224970B588422F
:1003200004D00023204CCA18A24232D300211F4B14
:100330001F4A934231D3FF211E4B1F4A8B439360C8
:1003400002220C25082430261C4B1D485A62C37813
:10035000FC398B431343C370C378AB432343C3704F
:10036000184B987BB0430600202030439873987B4D
:10037000A84304439C73987B884302439A73802369
:10038000114A51680B435360104B9847104B9847E4
:10039000FEE7C55804331560C5E702C3C9E7C04688
:1003A0001C2400000000002018000020180000207D
:1003B000500100200000000000ED00E0FC70004152
:1003C000005000410048004100400041352300003A
:1003D000911D000070B51F244209C0B20440FF23E4
:1003E0004D1C09D11A40D201144BA218D21813780F
:1003F00002318B43137070BD01251340104ADB019D
:100400009B181E1940363278AA432A43327062087C
:10041000284209D00F209A1830321378090103407E
:100420001943C9B21170E6E70F209B1830331A78D0
:100430000140824311431970DDE7C046404400414A
:10044000004400411F22430910401E3A8240012906
:1004500016D0002902D0022920D07047C021DB012C
:10046000C90559184A60802190B2C9050143134853
:100470001B189962110CC02212060A439A62ECE71B
:10048000C021DB01C90559184A600D4990B20143EA
:100490000A481B189962110C0A4AEEE7C021DB01D9
:1004A000C90559188A60802190B2C90501430348E3
:1004B000120C1B189962C0210906DEE700440041B6
:1004C00000000240000002C010B500210220034BD2
:1004D000984703490220034B984710BD450400008C
:1004E00001000200D50300008023044A5B02116A68
:1004F0000B431362024A034B5A80704700040040CA
:100500001E400000000C004010B5054B9847054BFD
:100510009847002204490548054B984710BDC0463E
:10052000E9040000C904000000400042D40000209B
:10053000990C0000F8B5164A164B174C174F5A8005
:1005400001210520B84722000426A0214532137856
:10055000134DB3431370C9020520A847012106209B
:10056000B8472200C02146321378C902B343137042
:100570000620A84701210920B84790214934237853
:100580000903B34323700920A847064B9847F8BDD9
:1005900005400000000C00400044004145040000FC
:1005A000D50300006D0D00000423024AD1690B43FE
:1005B000D36170470004004010B5034B98470349CE
:1005C0000348044B984710BDA905000000400041B6
:1005D000A00000206D0E000070B501210F4D082015
:1005E000A84704210E4A0F4C137808208B43137040
:1005F0000D49A047C0268023F605DB007361022168
:100600000A20A84709490A20A047802302217361D4
:100610000720A84706490720A04770BD45040000F1
:1006200048440041D50300000200080002000A000F
:10063000030007000423044A116A0B431362034AB0
:10064000034B5A807047C04600040040144000002D
:10065000000C004010B5044B98470449044B054872
:100660009847054B984710BD35060000000800422A
:1006700001100000E8000020D905000070B501213C
:10068000104D1620A84704210F4A104C137816204D
:100690008B4313700E49A047C0268023F6055B04E8
:1006A000736102211820A8470A491820A047802317
:1006B0001B03736102211320A84707491320A04799
:1006C00070BDC0464504000056440041D5030000FB
:1006D0000200160002001800030013002023044A41
:1006E000116A0B431362034A034B5A807047C0469A
:1006F0000004004017400000000C004010B5044BFF
:1007000098470449044B05489847054B984710BD46
:10071000DD0600000014004201100000BC000020B3
:100720007D06000010B50248024B984710BDC04638
:1007300010E000E0D90C00008023044A1B01116A7C
:100740000B431362024A034B5A8070470004004077
:100750001B400000000C004010B5054B9847054BAE
:10076000984705490200054B0548984710BDC0460B
:1007700039070000051D0000002C0042C10F0000D9
:10078000840000208023044ADB02116A0B431362B9
:10079000024A034B5A807047000400402140000089
:1007A000000C004010B5034B984703490348044B25
:1007B000984710BD8507000000480042DC0000207B
:1007C000C10C00001023044A91690B439361034A52
:1007D000034B5A807047C0460004004003400000AD
:1007E000000C004010B5044B98470448044B0360CC
:1007F000044B984710BDC046C5070000D800002034
:1008000000100040491D0000F8B5C0260124924F99
:10081000F605924B9847924D746102210020A8473B
:100820003A00403213782000A3431370022373610F
:100830001900A8473A00413213780221A3431370EC
:10084000082303207361A8473A004332137802213A
:10085000A3431370102304207361A8473A00443265
:1008600013780221A343137080231B0173610B20B3
:10087000A8473A004B3213780221A3431370802318
:100880005B0173610C20A8473A004C3213782100B9
:10089000A34313700D20A8473B0004214D331A7861
:1008A0000E208A431A701A780239A2431A708023E4
:1008B000DB017361A8473A004E3213780221A3434B
:1008C000137080231B0273610F20A8473A004F3238
:1008D00013780221A343137080235B0273611020FD
:1008E000A8473A00503213780221A34313708023A3
:1008F0009B0273611120A8473A00513213780221FC
:10090000A34313708023DB0273611220A8473A00CF
:10091000523213780221A343137080235B03736167
:100920001420A8473A00543213780221A3431370CD
:1009300080231B0473611720A8473A0057321378AD
:100940002100A34313701E20A8473B0004215E33FF
:100950001A781F208A431A701A782100A2431A704D
:10096000A8473B0004215F331A7822208A431A707B
:100970001A782100A2431A70A8473B000421C23311
:100980001A7894368A431A701A780239A2431A7078
:10099000082323203360A8473A00C332137802218A
:1009A000A343137080235B0033602820A8473A00DC
:1009B000C83213780221A343137080239B00336055
:1009C0002920A8473A00C93213780221A3431370A3
:1009D0008023DB0033602A20A8473A00CA3213780C
:1009E0000221A343137080231B0133602B20A847EF
:1009F0003A00CB3213783620A34313702100A84766
:100A00003B000421D6331A788A431A701A78A2431D
:100A10001A70144B9847144B9847144B9847144B33
:100A20009847144B9847144B98472023134A9169D1
:100A30000B439361124A134B5A80134B9847134947
:100A40000200134B13489847134B9847134B984792
:100A5000134B9847F8BDC046004400417513000091
:100A6000450400000905000035050000B905000037
:100A700055060000FD0600002507000000040040A8
:100A800004400000000C0040271900000014004042
:100A9000791100000001002059070000A50700009F
:100AA000E5070000064B1A88064B110A19705A70A8
:100AB000054B1A88054B110A19805A807047C046A9
:100AC0007C00002049010020140000204B01002080
:100AD00030B5154CA1B02000144B9847144A0500BE
:100AE000138801331380134B98476A466946124BAB
:100AF00020001B78114C1370114B1B785370114B55
:100B00001B789370104B1A78CA705B780B710F4B7F
:100B10001A884A715B886A468B710D4B19882B00C5
:100B2000A04721B030BDC046A00000208D0F0000BE
:100B30007C000020A50A000078000020D50E0000EF
:100B4000160000207B000020490100204B010020FE
:100B500014000020802110B5044BC9011980012226
:100B6000034B04489847044B984710BD14000020DD
:100B70002D0F0000A0000020D10A000007490A78CC
:100B80004B7812021343064A1380064A1388528890
:100B90001B021343044A13807047C04649010020DA
:100BA0007C0000204B0100201400002010B5154CE3
:100BB000A0B02000144B9847144A0300118820006D
:100BC0006A46134CA0476B461A78124B1A706B4654
:100BD0005A78114B1A706B469A78104B1A706A4605
:100BE0000F4BD2781A706A4612795A706A460D4BCA
:100BF00052791A806A4692795A800B4B984720B0F6
:100C000010BDC046A00000208D0F00001400002081
:100C1000910E000078000020160000207B000020CC
:100C2000490100204B0100207D0B0000134B1449AB
:100C30001B88144A8B4203D88023DB011380704742
:100C40001148181880B2884201D88223F5E70F486E
:100C5000181880B2884201D88423EEE70C4818188F
:100C600080B2884201D88623E7E70A481B189BB266
:100C70008B4201D88823E0E78A23DEE77C0000204E
:100C8000571B000014000020A8E4FFFF50C9FFFF1D
:100C9000F8ADFFFFA092FFFF10B5014B984710BDC4
:100CA00035130000EFF31083036072B6BFF35F8F5C
:100CB0007047BFF35F8F036883F3108870470000AD
:100CC00010B5044B04009847002801D16060A06073
:100CD00010BDC046ED13000010B5024B1860024B6A
:100CE000984710BD4C000020D11B0000044B10B5EC
:100CF0001C68044B9847044B01002000984710BD26
:100D00004C00002059130000E51B0000044B10B5F7
:100D10001C68044B9847044B01002000984710BD05
:100D20004C0000206D130000E51B000070B503218E
:100D300000250D4C4B195B10DAB2022B08DCDB00EE
:100D4000E6187668864204D1E358002B00D0984715
:100D500070BD864204D20132D5B28D42EAD9F7E79E
:100D6000013AD1B2F9E7C04650000020012100222B
:100D700010B5064B494259601A60D9609A605961B2
:100D80001A610348034B984710BDC046500000202D
:100D90002D0D00000D140000244BF7B55A68904249
:100DA00010D0DA6890420FD05A6982420ED10222E6
:100DB000D2009950002900D001211D4B9847020014
:100DC0001000FEBD0022F3E70122F1E7002902D165
:100DD0000D225242F4E71A68002A08D09A68002AC5
:100DE00022D00D221C695242002CE9D10F32D200D0
:100DF0001D0099509A189446183550600195614627
:100E00005C684D68A5420AD2651C08D01F00654683
:100E10001968009142CD42C7009954601160019950
:100E200008339942EBD1C7E70122E0E750000020E8
:100E30008514000010B50121014B984710BDC04634
:100E40008514000010B50021014B984710BDC04625
:100E500085140000436910B5002B00D0984710BDE1
:100E6000836910B5002B00D0984710BD10B5054B15
:100E700004009847002803D1034B2360034B6360B1
:100E800010BDC046DD150000550E0000610E0000CB
:100E9000F7B51E000C4B04000D00019298470B4B58
:100EA0000700200098474743AF420AD3AB199F423F
:100EB00007D320003300019A2900054CA0470020E9
:100EC000FEBD0E204042FBE7111600001516000083
:100ED0001B160000F7B51F00104B05000E00019215
:100EE00098470F4B0400280098474443B44210D35E
:100EF000F3199C420DD3310028000A4B9847041E79
:100F00000AD128003B00019A3100074DA847200074
:100F1000FEBD0E204042FBE71120FBE7111600004A
:100F200015160000E517000065160000F7B5134B15
:100F30000E00040015009847114B019020009847BF
:100F40000E4B07002000984701383040009010D029
:100F50000E2040420CE0019930000A4B984740199E
:100F6000874208D320002A003100074B9847009899
:100F7000FEBDAF42EFD20D20EBE7C04611160000D8
:100F800015160000C92100003D17000010B5014BE7
:100F9000984710BD1116000010B50368984710BDA2
:100FA00010B54368984710BD436910B5002B00D0B9
:100FB000984710BD836910B5002B00D0984710BD2D
:100FC00010B50400034B9847034B00202360034BEC
:100FD000636010BD451C0000A90F0000B50F0000A4
:100FE00010B5054B9847041E03D1044B98472000C9
:100FF00010BD0D204042FBE72D18000051130000EA
:1010000010B5074B0400416004309847002806DB08
:101010000020044BA382044B2361044BE36010BD0A
:10102000BD1900000080FFFF9D100000811000002E
:1010300010B50430014B984710BDC0467D1A000022
:1010400010B50430014B984710BDC046891A000006
:1010500010B50430014B984710BDC046B11A0000CE
:101060007FB50B68043003934B6804938B6803A926
:1010700001930593014B984707B000BDBD1A0000CE
:101080001FB500230191029301A9034B0C38039271
:10109000984705B000BDC046611000001FB5002391
:1010A0000291019301A9034B0C380392984705B0B4
:1010B00000BDC046611000000C3008600020704781
:1010C000F7B50568002D02D1114B9847F7BD0126F1
:1010D0002C0000278B680093B31A0193A6686368FD
:1010E000B44693420DD863449B1A009EB3420CD27F
:1010F00023682700002B02D13800064BE5E71C00CF
:10110000ECE7019EF3186344EFE7A542F4D1DBE777
:10111000651200006D120000F8B5036905005E1C41
:10112000037E44690661DB0702D4037E9B0717D563
:1011300002232A7E13432B76F8BD2F0014370C4B65
:1011400038009847237C012B05D1666032002100CE
:101150003800084B98476F69E368200098473C00C7
:10116000002CE9D06368A268F31A9342E5D2E3E762
:1011700075120000C110000010B5044B0400984720
:101180000020034B2061236010BDC0468918000079
:101190001911000070B5064B05009847041E04D1D4
:1011A0002800044B9847200070BD11204042FBE707
:1011B0000D190000C518000010B5064B0400984733
:1011C000002804D02000044B9847002010BD1120B7
:1011D0004042FBE70D190000F5180000F0B50700CC
:1011E0000125037E14372B43037685B00400144B8E
:1011F00038000E0098470190002806D0237EAB43AC
:101200002376133D280005B0F0BD226931007260DD
:1012100002260C4B38009847237EAB432376237E6F
:10122000019D3342EED003A8074B9847237E200050
:10123000B3432376054B984703A8054B9847E1E74E
:1012400055120000C1100000A50C00002519000077
:10125000B30C00000068002800D170478842F9D123
:101260000120FAE703680B600160704703680B60B8
:10127000016070470368002B01D01A6802601800F3
:101280007047437EDB09FCD170470000F8B5244B62
:1012900004001A68E0235701DB001F40214B520174
:1012A0001B68214EDB0E1343DBB21F430D00B0471A
:1012B00023789B0703D5002320002370B047012328
:1012C00020002370B0471C235D43184B27855D1910
:1012D000AB78AA7E6370EB782000A3702B79E37063
:1012E0002B7C2375EB8AA3842B8BE38423002A3386
:1012F0001A70EB88A380B047EB6820002361B047E9
:101300002B7A20002372B0476B8A2000A383B0475A
:10131000AB8A20002384B0476B7800202370F8BD8F
:101320002460800020608000831200008C23000075
:101330000020704710B5044B01600C009847034B28
:1013400001002000984710BD311300008D120000ED
:10135000BFF34F8F30BF70476421484310B5013849
:10136000014B9847013010BDC9210000FA239B00B2
:101370005843704710B5064B5A685A60054B98475A
:10138000054B9847054B9847FF20054B984710BDE4
:1013900000400041611800007D1B0000C11B0000DF
:1013A00065150000C379DB09FCD17047F8B504006E
:1013B0000D4DA8472000A84723789B0705D500239B
:1013C00020002370A8472000A84701270026277087
:1013D0002000A8472000A847A6702000677026704C
:1013E000A8473000F8BDC046A513000010B5024B59
:1013F00001600800984710BDAD130000024A537801
:10140000DB09FCD17047C04600180040F8B5184C05
:10141000184D0700A847A84723789B0703D500234A
:101420002370A847A84701232370A847A8479823FB
:1014300000269B00A67063606361DD231B05A3612A
:10144000D023E3612278CE3B13432370A8471023B7
:1014500009490A4ACB67BFF34F8FBFF36F8FC02193
:10146000490053501360064B30001F60F8BDC04662
:1014700000180040FD13000004E100E000E100E07E
:1014800068000020052814D0062814D00D235B42E4
:1014900009280CD10F330C4ADB00985CFF280FD0D1
:1014A00001230A4A8340002907D0D3600023180093
:1014B00070470023EFE70123EDE793601361F5E741
:1014C0000D235B42F3E7C046A8230000001800404C
:1014D000F0B501261F4D85B02B69EA6876421340AE
:1014E0000393039B2B61039B002B1AD105B0F0BD26
:1014F00003200022184F83185B10D9B2DB00019142
:10150000D95D8C46A1421AD1FB185E68731C03D0CA
:10151000124B30001B6898470122A240039B934363
:10152000039303980E4B9847013844B2631CDFD1F4
:101530002B69EA6813400393039B2B61D3E701995E
:10154000A44504DA0131CAB29042D4D2DEE70139AF
:10155000C8B2F9E700180040A82300006800002086
:10156000E1220000C30709D58022054B52009A6092
:10157000832252025A605A78D209FCD17047C04681
:10158000000C0040F0B501244908057D2542FCD03F
:10159000104C04800124057D2542FCD02024FF341A
:1015A000048300244E009C4207D30123027D1A428B
:1015B000FCD0094BC1610380F0BD175DBDB23E2C6C
:1015C00003D815196D782D023D4302343580A4B23D
:1015D0000236E8E744A5FFFF04A5FFFF9E22016154
:1015E0004B6813404B60084B7E3A1860074B191D3F
:1015F000CA67BFF34F8FBFF36F8FC02149005A50A6
:1016000000201A607047C0466C00002000E100E036
:101610004020704780204001704770B50125006967
:101620004C08067D2E42FCD02026FF360683002083
:10163000294205D0A94309880134090A11700130F3
:101640006400241A5E1E984200D370BD01190988F7
:1016500089B21154B04202D21518090A69700230D9
:10166000F1E70000F0B50D00C7B0029003920193BE
:10167000FF232C009C432300661CFF330493FF369A
:101680000094009B00991A1B06ABD21802984023C5
:10169000274FB847009B40330093B342F1D13F221C
:1016A0002E002B1B99091340039A501B039F721B9A
:1016B000BA180592049A964202D8019A002A26D1B5
:1016C0000122029B1B69197D1142FCD020222500BA
:1016D000FF321A836208DA61164A1A8002982A1BBE
:1016E00006ABD218290040230069134FB847009B6E
:1016F0004035AB42F2D1059B049A0393019BF3184A
:10170000013B9A4201D347B0F0BD3500B0E78A01F2
:1017100006AFD219875D0136D7543F2201331340FB
:101720005A425A418918019A013A0192BEE7C046CD
:101730001B16000002A5FFFF85150000F0B50D0087
:10174000FF212E0093B00090170002A84022224BE8
:101750008E439847B54217D1012331003A009C4689
:101760001E4C032A25D80025BC08A3002402FF1A1A
:10177000A419AF422DD02100402302AA0098184E90
:10178000B04740340135F4E72B000136C033FF3653
:101790000193402302AA29000098114C013FA04761
:1017A000002F16D04035AE42D6D0019B9D42F0D1DD
:1017B000D2E7009B1B6960461D7D0542FBD02020BF
:1017C0004D08FF3001311883FF31DD61043A1C8080
:1017D000C7E713B0F0BDC0467D23000002A5FFFFA0
:1017E0006516000003690120890B89B288401B8CB3
:1017F000184043425841C0B27047000001210A4BD3
:1018000010B5186803691A7D0A4204D00368002BDA
:1018100000D0984710BD1A7D52080A42FAD0022221
:101820001A754368F3E7C0466C000020022804D90B
:1018300003280BD00D20404207E00421064A13691B
:101840008B431361054B5870002070470423024AF4
:1018500011690B431361F7E700ED00E0000400405D
:10186000064B1A7AD2B21A725A7AD2B25A729A7A4B
:10187000D2B29A72DA7AD2B2DA72704700040040B9
:10188000837ADB09FCD1704770B501260400C16082
:101890000A4D0E800800A847E068A8478023E0684A
:1018A0000380A847E06883698023DB008361A84741
:1018B000E3680020DE71024B1C6070BD81180000DF
:1018C00070000020082270B5084B0500C0681A603F
:1018D00003690023064C0361A047E868A047022380
:1018E000E868028813430380A04770BD00E100E070
:1018F000811800000222C06810B50388934303805A
:10190000014B984710BDC0468118000010B5C4684F
:10191000034B2000984720888007C00F10BDC046A9
:1019200081180000704700207047000070B5012545
:10193000064B1C68E3681B7A2B4206D02368002BF9
:1019400001D020009847E3681D7270BD7000002030
:10195000C3691942FCD17047012310B5C4691C400A
:1019600008D10268DB18134303600321034B984737
:10197000200010BD04204042FBE7C0465119000082
:1019800070B50D001600012910D80523C4691C404C
:101990000FD1072143688B432B434360064B984785
:1019A0006B1E9D4120000135357070BD0D204042F9
:1019B000FBE70420FBE7C04651190000274BF7B5B1
:1019C000CB189B0ADBB206000C00002B04D00D20C4
:1019D0004042032B41D1023B0193E369204DDB07D9
:1019E00014D4022703212000A84723683B4208D0D3
:1019F00023680321BB4320002360A847390020004F
:101A0000A8470D23032123602000A84720000121BF
:101A1000A847144B3460200023600321A84780238B
:101A20009B02636020000721A8471123019A002030
:101A300053430D4AD3185A1DD27F197F22730722B0
:101A40000A40511E8A4120330132303420703271F5
:101A50009A79DB791B021343F380FEBD00F8FFBDCA
:101A6000511900000C000100C023000010B50068EF
:101A7000014B984710BDC0465919000010B5014BE5
:101A8000984710BD6D1A000001220368D869104004
:101A900002D1C9B21973704704204042FBE700002D
:101AA00010B5021D014B0068984710BD8119000058
:101AB00010B5014B984710BDA11A0000F0B585B0D4
:101AC00001900291056803790720EC690F684E6860
:101AD0000393044031D1284B0321280098472B68F9
:101AE0009B072DD5012321009C4604232A7ED2B2D8
:101AF0001A4227D0AB6A002E04D003983370012815
:101B000012D80136013152B2002A2DDA01231320F6
:101B10005B426B8381332B76404203232A7E1A4239
:101B2000FCD02B7605B0F0BD1B0A73700236E9E7D6
:101B30007B7802371B02034313E004204042F1E7A5
:101B40001420FBE7A142DED363461A42DBD0019B9F
:101B5000DB88002F05D0039B3878012BE8D80300E1
:101B600001370134AB62CEE7029B9B68A342BCD82D
:101B70008B42BAD82000D0E7511900000D4B0E4817
:101B80001A6A196A0240890F0C48890701430A43FF
:101B90001A62022299690A431F219A611A7F0A4038
:101BA0001A770822D9681142FCD08022196A0A43A8
:101BB0001A627047000800400000FF0F0203000097
:101BC0000221024A93698B439361704700080040E9
:101BD000024B034A5A6005221A60704710E000E089
:101BE000FFFFFF0070B580250B0E0C4A0C4CD8B2DD
:101BF0006D020138C0B2FF280AD118061B1A591805
:101C0000802351605B02916011681942FCD070BD65
:101C10005460946016682E42FCD0EAE710E000E0C1
:101C2000FFFFFF00054BC018054B800A1B780330EF
:101C3000C0B2181A431E98414042704700D4FFBDFD
:101C40000000002070B505000C000800264B9847E6
:101C50002C61E37BDB09FCD12288920733D401237A
:101C60002380E27BD209FCD1142343431F48C018D0
:101C70004388027923802272C28862810C22134039
:101C8000082B25D1C368A3610369E361184B9C420B
:101C900001D1184B1D60184B0020E418A40A12341F
:101CA000E2B223060ED41F231A401E3B9340134971
:101CB000134ACB67BFF34F8FBFF36F8FC02149002B
:101CC0005350136070BD2380E27BD209FCD1C6E77C
:101CD000002B05D18389238303699BB26383D5E7F6
:101CE00001204042EEE7C046251C00000000002015
:101CF000002C00427400002000D4FFBD04E100E08D
:101D000000E100E0002070470C4B70B51C68012317
:101D10002569AA7B1A4205D0AB732368002B01D03A
:101D2000200098476B7B9B0706D50223AB73636843
:101D3000002B01D02000984770BDC04674000020E1
:101D4000C379DB09FCD1704770B5046806000F4DFC
:101D50002000A8472378DB0902D01120404270BD43
:101D600034682000A8472478A407E40FF5D10422A2
:101D70003068037893430370A8470F223068437894
:101D800093434370A8472000E9E7C046411D000087
:101D90000023F7B5314A324E324D137033702B7039
:101DA000314B9847314B9847314B9847314B9847C7
:101DB000314B9847314C071E26D1314B98471C2395
:101DC000152208211420019700932E4F0C3BB84791
:101DD000012333702C4B9847A0472C4B98472B7806
:101DE000002B1BD02A4B012219882A482A4B9847DE
:101DF0002A4B98472A482B4B98472B4B98472B4BFD
:101E0000022098470020FEBD294B9847A0471F4B52
:101E10009847284B1878284B9847E0E7254C264BE5
:101E2000207898473378002B08D1E3780133DBB270
:101E3000E370052B02D92378013323702378013313
:101E4000DBB22370002B06D01C4B472101209847A2
:101E50002378013B237001232B70C0E72001002071
:101E60004E0100204D0100201501000089210000D5
:101E700075010000A101000071210000AD0B000000
:101E8000AD200000E9200000550B00002D0C0000E3
:101E900014000020A00000202D0F0000D10A000037
:101EA000881300000D0D0000F9020000E10F000092
:101EB0005D21000078000020ED0100000D1F0000F2
:101EC000C0238022DB051202002801D09A617047EE
:101ED0005A61FCE7F8B5C0268027FA25084BF605BD
:101EE000FF016D009847B7612800064CA047776155
:101EF0002800A047044A136801331360F8BDC046A8
:101F0000C11E0000ED0C00008000002070B5C0254F
:101F10000823ED050600AB611420074B0C00984721
:101F2000002C02D108236B6170BD3000034B013CD3
:101F30009847A4B2F4E7C0460D0D0000D51E00007E
:101F400070B5064B0A2105009847054B04010A218C
:101F5000280098476418E0B270BDC046C92100004F
:101F6000D5220000B0B513000C0069460833DB0829
:101F7000DB00CB1A00AF9D466946012308709A42E8
:101F80000BDAC0240125E405074B65615219186876
:101F9000064B9847BD46A561B0BDE01801380078F2
:101FA000C8540133DBB2EAE71C010020990F00009E
:101FB000F7B5C0256B4601240F00094ED91DED056C
:101FC000009208706C6122003068064B98476B469F
:101FD00039001A883068044B9847AC61F7BDC04699
:101FE0001C010020990F0000A10F0000152307B568
:101FF00001A90B7001229020014B984707BDC046F4
:10200000651F00001B2307B501A90B700122912059
:10201000014B984707BDC046651F0000002307B568
:1020200001A90B7001229D20014B984707BDC046B6
:10203000651F00006C2307B501A90B7001229220D7
:10204000014B984707BDC046651F0000002307B538
:1020500001A90B7001229320014B984707BDC04690
:10206000651F0000A12337B501AC064D21000122F8
:102070009F202370A8474823012221009C206370E1
:10208000A84737BD651F0000142337B501AC064DC6
:102090002100012298202370A8473023012221002B
:1020A0008A202370A84737BD651F000010B5074B75
:1020B0009847074B9847074B9847074B9847074B5C
:1020C0009847074B9847074B984710BDED1F0000F6
:1020D000052000001D200000352000004D200000DC
:1020E0006520000089200000F0B5040085B01D00C7
:1020F0000AAB1B780F0000930BAB1B780021160076
:1021000001930522124B02A898472000114CA047CA
:1021100002AB58713800A04702AB18713000A047DD
:1021200002ABD8702800A04702AB98700098A04777
:1021300002AB58700198A04780235B42184302AB62
:102140001870190006228120034B984705B0F0BD96
:102150007D230000411F0000651F000007B5034BF1
:10216000012201A90F20984707BDC046B11F0000FA
:10217000012213B501AC10002100024B98472078D2
:10218000C00916BDB11F000010B5084C0849200059
:10219000084B984708492000084B98470021200029
:1021A000074B98472000074B984710BDE8000020D8
:1021B0001C010020B9100000A086010041100000A1
:1021C0005110000031100000002243088B4274D3EC
:1021D00003098B425FD3030A8B4244D3030B8B4228
:1021E00028D3030C8B420DD3FF22090212BA030C31
:1021F0008B4202D31212090265D0030B8B4219D312
:1022000000E0090AC30B8B4201D3CB03C01A524131
:10221000830B8B4201D38B03C01A5241430B8B4279
:1022200001D34B03C01A5241030B8B4201D30B0362
:10223000C01A5241C30A8B4201D3CB02C01A524189
:10224000830A8B4201D38B02C01A5241430A8B424C
:1022500001D34B02C01A5241030A8B4201D30B0235
:10226000C01A5241CDD2C3098B4201D3CB01C01A4F
:10227000524183098B4201D38B01C01A5241430959
:102280008B4201D34B01C01A524103098B4201D347
:102290000B01C01A5241C3088B4201D3CB00C01AB4
:1022A000524183088B4201D38B00C01A524143082C
:1022B0008B4201D34B00C01A5241411A00D2014651
:1022C000524110467047FFE701B5002000F006F8C4
:1022D00002BDC0460029F7D076E770477047C04678
:1022E00010B50023002802D000F004F8431C1800A9
:1022F00010BDC046414208401C2101231B049842E6
:1023000001D3000C10391B0A984201D3000A083986
:102310001B09984201D30009043902A2105C401A3B
:102320007047C0461B1C1D1D1E1E1E1E1F1F1F1F8B
:102330001F1F1F1F70B500260C4D0D4C641BA410F1
:10234000A64209D1002600F059F80A4D0A4C641B38
:10235000A410A64205D170BDB300EB5898470136D2
:10236000EEE7B300EB5898470136F2E70824000087
:1023700008240000082400000C2400000300821838
:10238000934200D1704719700133F9E70002000051
:10239000000000000000000000000000000000003D
:1023A0000000000000000000050000000500000023
:1023B00006000000060000000900000009000000FF
:1023C000000000000000000000000000000000000D
:1023D00000000000000000000C00010000000200EE
:1023E000000000000900FF01000C000100000002D5
:1023F00000000000000900FF01030000F8B5C0461E
:10240000F8BC08BC9E467047DD000000F8B5C04629
:0C241000F8BC08BC9E467047B5000000F8
:10241C000300600300000000320000007C0000009C
:08242C003E0000000040040026
:00000001FF
